{
  "_format": "hh-sol-artifact-1",
  "contractName": "Supply",
  "sourceName": "contracts/Supply.sol",
  "abi": [
    {
      "anonymous": false,
      "inputs": [
        {
          "indexed": false,
          "internalType": "string",
          "name": "cropName",
          "type": "string"
        },
        {
          "indexed": false,
          "internalType": "string",
          "name": "quantity",
          "type": "string"
        },
        {
          "indexed": false,
          "internalType": "string",
          "name": "quality",
          "type": "string"
        },
        {
          "indexed": false,
          "internalType": "uint256",
          "name": "price",
          "type": "uint256"
        }
      ],
      "name": "applyCertificateEvent",
      "type": "event"
    },
    {
      "anonymous": false,
      "inputs": [
        {
          "indexed": false,
          "internalType": "string",
          "name": "name",
          "type": "string"
        },
        {
          "indexed": false,
          "internalType": "string",
          "name": "email",
          "type": "string"
        },
        {
          "indexed": false,
          "internalType": "string",
          "name": "password",
          "type": "string"
        },
        {
          "indexed": false,
          "internalType": "string",
          "name": "role",
          "type": "string"
        }
      ],
      "name": "createAuthorityEvent",
      "type": "event"
    },
    {
      "anonymous": false,
      "inputs": [
        {
          "indexed": false,
          "internalType": "string",
          "name": "name",
          "type": "string"
        },
        {
          "indexed": false,
          "internalType": "string",
          "name": "email",
          "type": "string"
        },
        {
          "indexed": false,
          "internalType": "string",
          "name": "password",
          "type": "string"
        },
        {
          "indexed": false,
          "internalType": "string",
          "name": "role",
          "type": "string"
        }
      ],
      "name": "createCustomerEvent",
      "type": "event"
    },
    {
      "anonymous": false,
      "inputs": [
        {
          "indexed": false,
          "internalType": "string",
          "name": "name",
          "type": "string"
        },
        {
          "indexed": false,
          "internalType": "string",
          "name": "email",
          "type": "string"
        },
        {
          "indexed": false,
          "internalType": "string",
          "name": "password",
          "type": "string"
        },
        {
          "indexed": false,
          "internalType": "string",
          "name": "role",
          "type": "string"
        }
      ],
      "name": "createFarmerEvent",
      "type": "event"
    },
    {
      "anonymous": false,
      "inputs": [
        {
          "indexed": false,
          "internalType": "string",
          "name": "id",
          "type": "string"
        },
        {
          "indexed": false,
          "internalType": "string",
          "name": "name",
          "type": "string"
        },
        {
          "indexed": false,
          "internalType": "string",
          "name": "price",
          "type": "string"
        },
        {
          "indexed": false,
          "internalType": "string",
          "name": "desc",
          "type": "string"
        }
      ],
      "name": "createProductEvent",
      "type": "event"
    },
    {
      "anonymous": false,
      "inputs": [
        {
          "indexed": false,
          "internalType": "string",
          "name": "id",
          "type": "string"
        },
        {
          "indexed": false,
          "internalType": "string",
          "name": "farmer",
          "type": "string"
        },
        {
          "indexed": false,
          "internalType": "string",
          "name": "crop",
          "type": "string"
        },
        {
          "indexed": false,
          "internalType": "string",
          "name": "land",
          "type": "string"
        },
        {
          "indexed": false,
          "internalType": "uint256",
          "name": "area",
          "type": "uint256"
        },
        {
          "indexed": false,
          "internalType": "uint256",
          "name": "time",
          "type": "uint256"
        },
        {
          "indexed": false,
          "internalType": "uint256",
          "name": "yield",
          "type": "uint256"
        }
      ],
      "name": "cropRegisterEvent",
      "type": "event"
    },
    {
      "anonymous": false,
      "inputs": [
        {
          "indexed": false,
          "internalType": "string",
          "name": "farmerName",
          "type": "string"
        },
        {
          "indexed": false,
          "internalType": "string",
          "name": "cropName",
          "type": "string"
        },
        {
          "indexed": false,
          "internalType": "string",
          "name": "area",
          "type": "string"
        },
        {
          "indexed": false,
          "internalType": "string",
          "name": "progress",
          "type": "string"
        },
        {
          "indexed": false,
          "internalType": "string",
          "name": "timeremaining",
          "type": "string"
        }
      ],
      "name": "midTermVerifyEvent",
      "type": "event"
    },
    {
      "inputs": [
        {
          "internalType": "string",
          "name": "cropName",
          "type": "string"
        },
        {
          "internalType": "string",
          "name": "quantity",
          "type": "string"
        },
        {
          "internalType": "string",
          "name": "quality",
          "type": "string"
        },
        {
          "internalType": "uint256",
          "name": "price",
          "type": "uint256"
        }
      ],
      "name": "applyCertificate",
      "outputs": [],
      "stateMutability": "nonpayable",
      "type": "function"
    },
    {
      "inputs": [
        {
          "internalType": "string",
          "name": "name",
          "type": "string"
        },
        {
          "internalType": "string",
          "name": "email",
          "type": "string"
        },
        {
          "internalType": "string",
          "name": "password",
          "type": "string"
        },
        {
          "internalType": "string",
          "name": "role",
          "type": "string"
        }
      ],
      "name": "createAuthority",
      "outputs": [],
      "stateMutability": "nonpayable",
      "type": "function"
    },
    {
      "inputs": [
        {
          "internalType": "string",
          "name": "name",
          "type": "string"
        },
        {
          "internalType": "string",
          "name": "email",
          "type": "string"
        },
        {
          "internalType": "string",
          "name": "password",
          "type": "string"
        },
        {
          "internalType": "string",
          "name": "role",
          "type": "string"
        }
      ],
      "name": "createCustomer",
      "outputs": [],
      "stateMutability": "nonpayable",
      "type": "function"
    },
    {
      "inputs": [
        {
          "internalType": "string",
          "name": "name",
          "type": "string"
        },
        {
          "internalType": "string",
          "name": "email",
          "type": "string"
        },
        {
          "internalType": "string",
          "name": "password",
          "type": "string"
        },
        {
          "internalType": "string",
          "name": "role",
          "type": "string"
        }
      ],
      "name": "createFarmer",
      "outputs": [],
      "stateMutability": "nonpayable",
      "type": "function"
    },
    {
      "inputs": [
        {
          "internalType": "string",
          "name": "id",
          "type": "string"
        },
        {
          "internalType": "string",
          "name": "name",
          "type": "string"
        },
        {
          "internalType": "string",
          "name": "price",
          "type": "string"
        },
        {
          "internalType": "string",
          "name": "desc",
          "type": "string"
        }
      ],
      "name": "createProduct",
      "outputs": [],
      "stateMutability": "nonpayable",
      "type": "function"
    },
    {
      "inputs": [
        {
          "internalType": "string",
          "name": "id",
          "type": "string"
        },
        {
          "internalType": "string",
          "name": "farmer",
          "type": "string"
        },
        {
          "internalType": "string",
          "name": "crop",
          "type": "string"
        },
        {
          "internalType": "string",
          "name": "land",
          "type": "string"
        },
        {
          "internalType": "uint256",
          "name": "area",
          "type": "uint256"
        },
        {
          "internalType": "uint256",
          "name": "time",
          "type": "uint256"
        },
        {
          "internalType": "uint256",
          "name": "yield",
          "type": "uint256"
        }
      ],
      "name": "cropRegister",
      "outputs": [],
      "stateMutability": "nonpayable",
      "type": "function"
    },
    {
      "inputs": [],
      "name": "getAllCropIds",
      "outputs": [
        {
          "internalType": "string[]",
          "name": "",
          "type": "string[]"
        }
      ],
      "stateMutability": "view",
      "type": "function"
    },
    {
      "inputs": [],
      "name": "getAllProductIds",
      "outputs": [
        {
          "internalType": "string[]",
          "name": "",
          "type": "string[]"
        }
      ],
      "stateMutability": "view",
      "type": "function"
    },
    {
      "inputs": [
        {
          "internalType": "string",
          "name": "password",
          "type": "string"
        }
      ],
      "name": "getAuthority",
      "outputs": [
        {
          "components": [
            {
              "internalType": "string",
              "name": "name",
              "type": "string"
            },
            {
              "internalType": "string",
              "name": "email",
              "type": "string"
            },
            {
              "internalType": "string",
              "name": "password",
              "type": "string"
            },
            {
              "internalType": "string",
              "name": "role",
              "type": "string"
            },
            {
              "internalType": "address",
              "name": "ETHAddress",
              "type": "address"
            }
          ],
          "internalType": "struct Supply.Authority",
          "name": "",
          "type": "tuple"
        }
      ],
      "stateMutability": "view",
      "type": "function"
    },
    {
      "inputs": [],
      "name": "getCrops",
      "outputs": [
        {
          "components": [
            {
              "internalType": "string",
              "name": "id",
              "type": "string"
            },
            {
              "internalType": "string",
              "name": "farmerName",
              "type": "string"
            },
            {
              "internalType": "address",
              "name": "ETHAddress",
              "type": "address"
            },
            {
              "internalType": "string",
              "name": "cropName",
              "type": "string"
            },
            {
              "internalType": "string",
              "name": "landAddress",
              "type": "string"
            },
            {
              "internalType": "uint256",
              "name": "area",
              "type": "uint256"
            },
            {
              "internalType": "uint256",
              "name": "time",
              "type": "uint256"
            },
            {
              "internalType": "uint256",
              "name": "yield",
              "type": "uint256"
            },
            {
              "internalType": "uint256",
              "name": "timeofRegister",
              "type": "uint256"
            }
          ],
          "internalType": "struct Supply.Crop[]",
          "name": "",
          "type": "tuple[]"
        }
      ],
      "stateMutability": "view",
      "type": "function"
    },
    {
      "inputs": [
        {
          "internalType": "string",
          "name": "password",
          "type": "string"
        }
      ],
      "name": "getCustomer",
      "outputs": [
        {
          "components": [
            {
              "internalType": "string",
              "name": "name",
              "type": "string"
            },
            {
              "internalType": "string",
              "name": "email",
              "type": "string"
            },
            {
              "internalType": "string",
              "name": "password",
              "type": "string"
            },
            {
              "internalType": "string",
              "name": "role",
              "type": "string"
            },
            {
              "internalType": "address",
              "name": "ETHAddress",
              "type": "address"
            }
          ],
          "internalType": "struct Supply.Customer",
          "name": "",
          "type": "tuple"
        }
      ],
      "stateMutability": "view",
      "type": "function"
    },
    {
      "inputs": [
        {
          "internalType": "string",
          "name": "password",
          "type": "string"
        }
      ],
      "name": "getFarmer",
      "outputs": [
        {
          "components": [
            {
              "internalType": "string",
              "name": "name",
              "type": "string"
            },
            {
              "internalType": "string",
              "name": "email",
              "type": "string"
            },
            {
              "internalType": "string",
              "name": "password",
              "type": "string"
            },
            {
              "internalType": "string",
              "name": "role",
              "type": "string"
            },
            {
              "internalType": "address",
              "name": "ETHAddress",
              "type": "address"
            }
          ],
          "internalType": "struct Supply.Farmer",
          "name": "",
          "type": "tuple"
        }
      ],
      "stateMutability": "view",
      "type": "function"
    },
    {
      "inputs": [],
      "name": "getProducts",
      "outputs": [
        {
          "components": [
            {
              "internalType": "string",
              "name": "id",
              "type": "string"
            },
            {
              "internalType": "string",
              "name": "name",
              "type": "string"
            },
            {
              "internalType": "string",
              "name": "price",
              "type": "string"
            },
            {
              "internalType": "string",
              "name": "desc",
              "type": "string"
            }
          ],
          "internalType": "struct Supply.Product[]",
          "name": "",
          "type": "tuple[]"
        }
      ],
      "stateMutability": "view",
      "type": "function"
    },
    {
      "inputs": [
        {
          "internalType": "string",
          "name": "farmerName",
          "type": "string"
        },
        {
          "internalType": "string",
          "name": "cropName",
          "type": "string"
        },
        {
          "internalType": "string",
          "name": "area",
          "type": "string"
        },
        {
          "internalType": "string",
          "name": "progress",
          "type": "string"
        },
        {
          "internalType": "string",
          "name": "timeremaining",
          "type": "string"
        }
      ],
      "name": "midTermVerify",
      "outputs": [],
      "stateMutability": "nonpayable",
      "type": "function"
    }
  ],
  "bytecode": "0x608060405234801561001057600080fd5b50612489806100206000396000f3fe608060405234801561001057600080fd5b50600436106100e95760003560e01c8063663c01af1161008c578063b51ca0af11610066578063b51ca0af146101c8578063c29b2f20146101db578063eb51e3cd146101f0578063f53a75031461020357600080fd5b8063663c01af1461018d5780639afdf9f5146101a2578063b1514942146101b557600080fd5b80635087e668116100c85780635087e66814610129578063518bddd9146101525780635baef56d146101655780635f073f3a1461017857600080fd5b8062c9753b146100ee578063200d6de7146101035780632f2701c414610116575b600080fd5b6101016100fc366004611a80565b61020b565b005b610101610111366004611b52565b610312565b610101610124366004611bff565b6104b6565b61013c610137366004611c8f565b610589565b6040516101499190611d9d565b60405180910390f35b61013c610160366004611c8f565b610966565b610101610173366004611b52565b610aec565b610180610c85565b6040516101499190611db7565b610195610f6c565b6040516101499190611ebb565b6101016101b0366004611f1f565b6110a8565b61013c6101c3366004611c8f565b611212565b6101016101d6366004611b52565b611398565b6101e361152f565b6040516101499190611fe7565b6101016101fe366004611b52565b6117cd565b6101956118a7565b6040805160a081018252868152602081018690529081018490526060810183905260808101829052600580546001810182556000829052825191027f036b6384b5eca791c62761152d0c79bb0604c104a5fb6f4eb0703f3154bb3db001908190610275908261211c565b506020820151600182019061028a908261211c565b506040820151600282019061029f908261211c565b50606082015160038201906102b4908261211c565b50608082015160048201906102c9908261211c565b5050507fea0d6860e2441fb10c015e3997860d4ea0b1277281e73eabd32fe8210fa3483385858585856040516103039594939291906121dc565b60405180910390a15050505050565b336040516020016103239190612249565b60408051601f1981840301815282825280516020918201203360009081526001835292909220600401549192610363926001600160a01b03169101612249565b60405160208183030381529060405280519060200120036103c35760405162461bcd60e51b81526020600482015260156024820152744661726d657220616c72656164792065786973742160581b60448201526064015b60405180910390fd5b6040805160a0810182528581526020808201869052818301859052606082018490523360808301819052600090815260019091529190912081518190610409908261211c565b506020820151600182019061041e908261211c565b5060408201516002820190610433908261211c565b5060608201516003820190610448908261211c565b5060809190910151600490910180546001600160a01b0319166001600160a01b039092169190911790556040517f5c47ff0a569e587692da604d2bf92787dd7f006684698dbd8c59539be7e35a74906104a8908690869086908690612266565b60405180910390a150505050565b60408051608081018252858152602081018590529081018390526060810182905260068054600181018255600091909152815160049091027ff652222313e28459528d920b65115c16c04f3efc82aaedc97be59f3f377c0d3f0190819061051d908261211c565b5060208201516001820190610532908261211c565b5060408201516002820190610547908261211c565b506060820151816003015550507f90c5ec06bc7a7df5430d49555d4119721589768249032004eb2b2f133763801c848484846040516104a894939291906122be565b6105c46040518060a001604052806060815260200160608152602001606081526020016060815260200160006001600160a01b031681525090565b336040516020016105d59190612249565b60408051601f1981840301815282825280516020918201203360009081526002835292909220600401549192610615926001600160a01b03169101612249565b604051602081830303815290604052805190602001201461066f5760405162461bcd60e51b8152602060048201526014602482015273417574686f72697479204e6f742065786973742160601b60448201526064016103ba565b816040516020016106809190612309565b60408051601f198184030181528282528051602091820120336000908152600280845293902090936106b793919091019101612325565b60405160208183030381529060405280519060200120146106ea5760405162461bcd60e51b81526004016103ba9061239b565b3360009081526002602052604090819020815160a0810190925280548290829061071390612097565b80601f016020809104026020016040519081016040528092919081815260200182805461073f90612097565b801561078c5780601f106107615761010080835404028352916020019161078c565b820191906000526020600020905b81548152906001019060200180831161076f57829003601f168201915b505050505081526020016001820180546107a590612097565b80601f01602080910402602001604051908101604052809291908181526020018280546107d190612097565b801561081e5780601f106107f35761010080835404028352916020019161081e565b820191906000526020600020905b81548152906001019060200180831161080157829003601f168201915b5050505050815260200160028201805461083790612097565b80601f016020809104026020016040519081016040528092919081815260200182805461086390612097565b80156108b05780601f10610885576101008083540402835291602001916108b0565b820191906000526020600020905b81548152906001019060200180831161089357829003601f168201915b505050505081526020016003820180546108c990612097565b80601f01602080910402602001604051908101604052809291908181526020018280546108f590612097565b80156109425780601f1061091757610100808354040283529160200191610942565b820191906000526020600020905b81548152906001019060200180831161092557829003601f168201915b5050509183525050600491909101546001600160a01b031660209091015292915050565b6109a16040518060a001604052806060815260200160608152602001606081526020016060815260200160006001600160a01b031681525090565b336040516020016109b29190612249565b60408051601f198184030181528282528051602091820120336000908152808352929092206004015491926109f1926001600160a01b03169101612249565b6040516020818303038152906040528051906020012014610a4a5760405162461bcd60e51b8152602060048201526013602482015272437573746f6d6572204e6f742065786973742160681b60448201526064016103ba565b81604051602001610a5b9190612309565b60408051601f198184030181528282528051602091820120336000908152808352929092209192610a90926002019101612325565b6040516020818303038152906040528051906020012014610ac35760405162461bcd60e51b81526004016103ba9061239b565b3360009081526020819052604090819020815160a0810190925280548290829061071390612097565b33604051602001610afd9190612249565b60408051601f1981840301815282825280516020918201203360009081526002835292909220600401549192610b3d926001600160a01b03169101612249565b6040516020818303038152906040528051906020012003610ba05760405162461bcd60e51b815260206004820152601860248201527f417574686f7269747920616c726561647920657869737421000000000000000060448201526064016103ba565b6040805160a0810182528581526020808201869052818301859052606082018490523360808301819052600090815260029091529190912081518190610be6908261211c565b5060208201516001820190610bfb908261211c565b5060408201516002820190610c10908261211c565b5060608201516003820190610c25908261211c565b5060809190910151600490910180546001600160a01b0319166001600160a01b039092169190911790556040517fc5818d9d7df1d0bdb4144d2e0d9ca09a1d5b05dbaea4477c8e49131d5b6623ad906104a8908690869086908690612266565b60606003805480602002602001604051908101604052809291908181526020016000905b82821015610f63578382906000526020600020906009020160405180610120016040529081600082018054610cdd90612097565b80601f0160208091040260200160405190810160405280929190818152602001828054610d0990612097565b8015610d565780601f10610d2b57610100808354040283529160200191610d56565b820191906000526020600020905b815481529060010190602001808311610d3957829003601f168201915b50505050508152602001600182018054610d6f90612097565b80601f0160208091040260200160405190810160405280929190818152602001828054610d9b90612097565b8015610de85780601f10610dbd57610100808354040283529160200191610de8565b820191906000526020600020905b815481529060010190602001808311610dcb57829003601f168201915b505050918352505060028201546001600160a01b03166020820152600382018054604090920191610e1890612097565b80601f0160208091040260200160405190810160405280929190818152602001828054610e4490612097565b8015610e915780601f10610e6657610100808354040283529160200191610e91565b820191906000526020600020905b815481529060010190602001808311610e7457829003601f168201915b50505050508152602001600482018054610eaa90612097565b80601f0160208091040260200160405190810160405280929190818152602001828054610ed690612097565b8015610f235780601f10610ef857610100808354040283529160200191610f23565b820191906000526020600020905b815481529060010190602001808311610f0657829003601f168201915b5050505050815260200160058201548152602001600682015481526020016007820154815260200160088201548152505081526020019060010190610ca9565b50505050905090565b60035460609060009067ffffffffffffffff811115610f8d57610f8d6119dd565b604051908082528060200260200182016040528015610fc057816020015b6060815260200190600190039081610fab5790505b50905060005b6003548110156110a25760038181548110610fe357610fe36123d0565b90600052602060002090600902016000018054610fff90612097565b80601f016020809104026020016040519081016040528092919081815260200182805461102b90612097565b80156110785780601f1061104d57610100808354040283529160200191611078565b820191906000526020600020905b81548152906001019060200180831161105b57829003601f168201915b505050505082828151811061108f5761108f6123d0565b6020908102919091010152600101610fc6565b50919050565b6040805161012081018252888152602081018890523391810191909152606081018690526080810185905260a0810184905260c0810183905260e081018290524261010082015260038054600181018255600091909152815160099091027fc2575a0e9e593c00f959f8c92f12db2869c3395a3b0502d05e2516446f71f85b01908190611135908261211c565b506020820151600182019061114a908261211c565b5060408201516002820180546001600160a01b0319166001600160a01b0390921691909117905560608201516003820190611185908261211c565b506080820151600482019061119a908261211c565b5060a0820151816005015560c0820151816006015560e08201518160070155610100820151816008015550507f04de9a277d2feb722948004b9c278b79a64c38632961e7e99b270b19392ee5158787878787878760405161120197969594939291906123e6565b60405180910390a150505050505050565b61124d6040518060a001604052806060815260200160608152602001606081526020016060815260200160006001600160a01b031681525090565b3360405160200161125e9190612249565b60408051601f198184030181528282528051602091820120336000908152600183529290922060040154919261129e926001600160a01b03169101612249565b60405160208183030381529060405280519060200120146112f55760405162461bcd60e51b81526020600482015260116024820152704661726d6572204e6f742065786973742160781b60448201526064016103ba565b816040516020016113069190612309565b60408051601f1981840301815282825280516020918201203360009081526001835292909220919261133c926002019101612325565b604051602081830303815290604052805190602001201461136f5760405162461bcd60e51b81526004016103ba9061239b565b3360009081526001602052604090819020815160a0810190925280548290829061071390612097565b336040516020016113a99190612249565b60408051601f198184030181528282528051602091820120336000908152808352929092206004015491926113e8926001600160a01b03169101612249565b604051602081830303815290604052805190602001200361144b5760405162461bcd60e51b815260206004820152601760248201527f437573746f6d657220616c72656164792065786973742100000000000000000060448201526064016103ba565b6040805160a08101825285815260208082018690528183018590526060820184905233608083018190526000908152908190529190912081518190611490908261211c565b50602082015160018201906114a5908261211c565b50604082015160028201906114ba908261211c565b50606082015160038201906114cf908261211c565b5060809190910151600490910180546001600160a01b0319166001600160a01b039092169190911790556040517f1b4cea3558a9e0c9f742c904e361522d01633b394adf89f8b91d8a50df89117a906104a8908690869086908690612266565b60606004805480602002602001604051908101604052809291908181526020016000905b82821015610f63578382906000526020600020906004020160405180608001604052908160008201805461158690612097565b80601f01602080910402602001604051908101604052809291908181526020018280546115b290612097565b80156115ff5780601f106115d4576101008083540402835291602001916115ff565b820191906000526020600020905b8154815290600101906020018083116115e257829003601f168201915b5050505050815260200160018201805461161890612097565b80601f016020809104026020016040519081016040528092919081815260200182805461164490612097565b80156116915780601f1061166657610100808354040283529160200191611691565b820191906000526020600020905b81548152906001019060200180831161167457829003601f168201915b505050505081526020016002820180546116aa90612097565b80601f01602080910402602001604051908101604052809291908181526020018280546116d690612097565b80156117235780601f106116f857610100808354040283529160200191611723565b820191906000526020600020905b81548152906001019060200180831161170657829003601f168201915b5050505050815260200160038201805461173c90612097565b80601f016020809104026020016040519081016040528092919081815260200182805461176890612097565b80156117b55780601f1061178a576101008083540402835291602001916117b5565b820191906000526020600020905b81548152906001019060200180831161179857829003601f168201915b50505050508152505081526020019060010190611553565b604080516080810182528581526020810185905290810183905260608101829052600480546001810182556000829052825191027f8a35acfbc15ff81a39ae7d344fd709f28e8600b4aa8c65c6b64bfe7fe36bd19b01908190611830908261211c565b5060208201516001820190611845908261211c565b506040820151600282019061185a908261211c565b506060820151600382019061186f908261211c565b5050507f7379608818bb2560bdeec1ddd43ca1eb22d1c384b47b466ba4906d3ebdaf290c848484846040516104a89493929190612266565b60035460609060009067ffffffffffffffff8111156118c8576118c86119dd565b6040519080825280602002602001820160405280156118fb57816020015b60608152602001906001900390816118e65790505b50905060005b6003548110156110a2576003818154811061191e5761191e6123d0565b9060005260206000209060090201600001805461193a90612097565b80601f016020809104026020016040519081016040528092919081815260200182805461196690612097565b80156119b35780601f10611988576101008083540402835291602001916119b3565b820191906000526020600020905b81548152906001019060200180831161199657829003601f168201915b50505050508282815181106119ca576119ca6123d0565b6020908102919091010152600101611901565b634e487b7160e01b600052604160045260246000fd5b600082601f830112611a0457600080fd5b813567ffffffffffffffff80821115611a1f57611a1f6119dd565b604051601f8301601f19908116603f01168101908282118183101715611a4757611a476119dd565b81604052838152866020858801011115611a6057600080fd5b836020870160208301376000602085830101528094505050505092915050565b600080600080600060a08688031215611a9857600080fd5b853567ffffffffffffffff80821115611ab057600080fd5b611abc89838a016119f3565b96506020880135915080821115611ad257600080fd5b611ade89838a016119f3565b95506040880135915080821115611af457600080fd5b611b0089838a016119f3565b94506060880135915080821115611b1657600080fd5b611b2289838a016119f3565b93506080880135915080821115611b3857600080fd5b50611b45888289016119f3565b9150509295509295909350565b60008060008060808587031215611b6857600080fd5b843567ffffffffffffffff80821115611b8057600080fd5b611b8c888389016119f3565b95506020870135915080821115611ba257600080fd5b611bae888389016119f3565b94506040870135915080821115611bc457600080fd5b611bd0888389016119f3565b93506060870135915080821115611be657600080fd5b50611bf3878288016119f3565b91505092959194509250565b60008060008060808587031215611c1557600080fd5b843567ffffffffffffffff80821115611c2d57600080fd5b611c39888389016119f3565b95506020870135915080821115611c4f57600080fd5b611c5b888389016119f3565b94506040870135915080821115611c7157600080fd5b50611c7e878288016119f3565b949793965093946060013593505050565b600060208284031215611ca157600080fd5b813567ffffffffffffffff811115611cb857600080fd5b611cc4848285016119f3565b949350505050565b60005b83811015611ce7578181015183820152602001611ccf565b50506000910152565b60008151808452611d08816020860160208601611ccc565b601f01601f19169290920160200192915050565b6000815160a08452611d3160a0850182611cf0565b905060208301518482036020860152611d4a8282611cf0565b91505060408301518482036040860152611d648282611cf0565b91505060608301518482036060860152611d7e8282611cf0565b6080948501516001600160a01b03169590940194909452509092915050565b602081526000611db06020830184611d1c565b9392505050565b600060208083018184528085518083526040925060408601915060408160051b87010184880160005b83811015611ead57603f1989840301855281516101208151818652611e0782870182611cf0565b915050888201518582038a870152611e1f8282611cf0565b91505087820151611e3a898701826001600160a01b03169052565b5060608083015186830382880152611e528382611cf0565b9250505060808083015186830382880152611e6d8382611cf0565b60a0858101519089015260c0808601519089015260e080860151908901526101009485015194909701939093525050509386019390860190600101611de0565b509098975050505050505050565b600060208083016020845280855180835260408601915060408160051b87010192506020870160005b82811015611f1257603f19888603018452611f00858351611cf0565b94509285019290850190600101611ee4565b5092979650505050505050565b600080600080600080600060e0888a031215611f3a57600080fd5b873567ffffffffffffffff80821115611f5257600080fd5b611f5e8b838c016119f3565b985060208a0135915080821115611f7457600080fd5b611f808b838c016119f3565b975060408a0135915080821115611f9657600080fd5b611fa28b838c016119f3565b965060608a0135915080821115611fb857600080fd5b50611fc58a828b016119f3565b979a969950949760808101359660a0820135965060c090910135945092505050565b600060208083018184528085518083526040925060408601915060408160051b87010184880160005b83811015611ead57603f1989840301855281516080815181865261203682870182611cf0565b915050888201518582038a87015261204e8282611cf0565b91505087820151858203898701526120668282611cf0565b915050606080830151925085820381870152506120838183611cf0565b968901969450505090860190600101612010565b600181811c908216806120ab57607f821691505b6020821081036110a257634e487b7160e01b600052602260045260246000fd5b601f821115612117576000816000526020600020601f850160051c810160208610156120f45750805b601f850160051c820191505b8181101561211357828155600101612100565b5050505b505050565b815167ffffffffffffffff811115612136576121366119dd565b61214a816121448454612097565b846120cb565b602080601f83116001811461217f57600084156121675750858301515b600019600386901b1c1916600185901b178555612113565b600085815260208120601f198616915b828110156121ae5788860151825594840194600190910190840161218f565b50858210156121cc5787850151600019600388901b60f8161c191681555b5050505050600190811b01905550565b60a0815260006121ef60a0830188611cf0565b82810360208401526122018188611cf0565b905082810360408401526122158187611cf0565b905082810360608401526122298186611cf0565b9050828103608084015261223d8185611cf0565b98975050505050505050565b60609190911b6bffffffffffffffffffffffff1916815260140190565b6080815260006122796080830187611cf0565b828103602084015261228b8187611cf0565b9050828103604084015261229f8186611cf0565b905082810360608401526122b38185611cf0565b979650505050505050565b6080815260006122d16080830187611cf0565b82810360208401526122e38187611cf0565b905082810360408401526122f78186611cf0565b91505082606083015295945050505050565b6000825161231b818460208701611ccc565b9190910192915050565b600080835461233381612097565b6001828116801561234b57600181146123605761238f565b60ff198416875282151583028701945061238f565b8760005260208060002060005b858110156123865781548a82015290840190820161236d565b50505082870194505b50929695505050505050565b6020808252818101527f57726f6e672070617373776f72642c506c656173652054727920416761696e21604082015260600190565b634e487b7160e01b600052603260045260246000fd5b60e0815260006123f960e083018a611cf0565b828103602084015261240b818a611cf0565b9050828103604084015261241f8189611cf0565b905082810360608401526124338188611cf0565b6080840196909652505060a081019290925260c09091015294935050505056fea2646970667358221220762934b6b702a02607c78d1abf751678739c1fdb89762b89c6968ba435b8a79b64736f6c63430008180033",
  "linkReferences": {},
  "deployedLinkReferences": {}
}